:03000000020030CB
:0100030032CA
:01000B0032C2
:0100130032BA
:03001B0002113F90
:03002300020408CC
:01002B0032A2
:100030007B207EFFDEFEDBFAB2B57581951203D917
:100040000157020064F543C4120B11120A8FE543F5
:10005000120B11120A8F22D2C620C6E6120DF7C269
:10006000AF756F02121791121EF112173A121C642B
:10007000D2C120C10A120E46B2B520C102018202CD
:100080000228C201120E7D120E7D120E7DC2AF1229
:10009000181B120E7D120E7D120C1812180B300157
:1000A000E120160D120DED120E50120DE1B2B50148
:1000B000AD538EFD90033AE0B4AAE9A3E0B4AAE4FC
:1000C000A3E0B4AADFA3E0B4AADA120DF7538EFDC1
:1000D000782F900316E0F6089003107F06E0F608EC
:1000E000A3DFFA782F7F06A3A3A3A308E0F5F0E629
:1000F000B5F01208A3DFF590000112011B120DE10B
:10010000120E3C210F120DF7120E50B2B52105123E
:100110000E3C120E3C120DE102010F7860A683081E
:10012000A6827D07782F900200E6F0120A8F08A3BE
:10013000DDF77C007D0712107622120DE1900001A0
:100140001214D9120C18200104B2B52143120DE18A
:10015000120E46120DE19000051214D9120C18204F
:100160000104B2B5215C120DE1120E46120DE1122E
:100170000E46120DE19000091214D9B291120E3CF4
:08018000B2B502017B02022866
:10018800D2962096F87905B2B5120E3CD9F9D296D6
:100198002096EA120DF7120DF7120C18200104B27E
:1001A800B521A19000017946A78309A7827A007B2F
:1001B8000C120EA0900000A3782A7F03E0A3F60893
:1001C800DFFA7F03782F792A12115A5009120DE1AC
:1001D80012137402017BA3782A7F03A3782A7F0372
:1001E800E0A3F608DFFA7F03782F792A12115A5014
:1001F80029120DE1120E46120DE1120C182001040D
:10020800B2B541029002007F03782FE6F0A308DF21
:10021800FA1214FC120DE1020202120DF70201A1FA
:1002280075330ED20BC297120DEDD2AF120E7D129E
:100238000E7DC28E120E7D120E7D120C18121F1822
:10024800D28E12180B120E7D120E7D12181B200171
:1002580015B2B5D2962096D2120E46B2B52096CADD
:10026800120DFF020232753500B2B57F03782F797F
:100278002A12115A40024188200B05753500413277
:10028800C2ABC2ABC20B7F03782F792A12116A2046
:10029800161DE53475F00884900300F582E0C30567
:1002A800F033D5F0FC400302039EC2AF020389532A
:1002B8008EFD90033FE07022783B900300E0F60843
:0702C800A3E0F608A3E0F635
:1002CF0008A3E0F608A3E0F608A3E0F608A3E0F61B
:1002DF00121CC990033EE07040C0A27F0575A200BA
:1002EF0090032075F00375A20190020075A200E043
:1002FF00A375A201F0A3D5F0F374FFF075A200C0AF
:10030F0083C082EFC0E0121450D0E0FF75A200D07E
:10031F0082D083DFCED0A26182B43341856B6985F1
:10032F006C6AC0A27F0575A20090032075F003755B
:10033F00A20190020075A200E0A375A201F0A3D55F
:10034F00F0F375A200C083C082EFC0E01214FCD09E
:10035F00E0FF75A200D082D083DFD1D0A2121C643F
:10036F00900307783B7F07E6F008A3DFFA753A049E
:10037F00120D30120DF7D2AB4132C2AF1213E9207A
:10038F000C0D121D8A30140261BA752E9061A17581
:10039F002E10B2B5120E37120DEDB2B5120E371276
:1003AF001576B2B5120E50D2AB4132B2B5120DE185
:1003BF00B2B5120DFFB2B5752E00121576B2B51289
:1003CF000E50753500D2AB02023275BB5C7598507A
:1003DF00759CFD758780D2C020C006759CF475870B
:1003EF0000758D00758B00D28ED2AB758E91D2AC0D
:1003FF00C209D29CC298D2AF22C2ACC28EC0E0C09A
:05040F00D0C083C08293
:10041400C08E538EFDC2D4D2D3C298E599B4485944
:10042400C213756400756500B2B57F01120A992084
:100434000847900200E0B40140C32565F565500209
:100444000564B2B57F01120A9920082D900200E0DC
:10045400F4C3F42565F56550020564C2AFB2B57FF7
:1004640001120A99200812900200E0B4D10BC325AE
:1004740065F565500705648180020A77B2B57F018E
:10048400120A992008F3900200E0F566B43155C3CE
:100494002565F565500205647F04120A992008D980
:1004A4007F0212117350241211AA7A007B041209DC
:1004B400C37A007B02120A2A7F0A120AC3A1768138
:1004C400CFB2917F02120AC30208187566027A003D
:1004D4007B021209C67A007B00120A2A7F08120ADC
:1004E400C3020A77B43233C32565F5655002056447
:1004F4007F04120A9920087A7F0212117350CC7A71
:10050400007B021209C37A007B00120A2A7F0812B8
:100514000AC3B2B5121374020A77B4335BC32565F8
:10052400F56550020564B2B57F0B120A99200842A2
:100534007F091211735094900200A3A3E0F53BA32A
:10054400E0F53CA3E0F53DA3E0F541A3E0F53EA3CF
:03055400E0F53F90
:10055700A3E0F540121CC97A007B021209C37A0096
:100567007B00120A2A7F08120AC3B2B5020A770271
:100577000A770204CFB43442C32565F565500205F6
:1005870064B2B57F04120A992008E47F021211733E
:1005970050E0121C647F07783B900206E6F008A340
:1005A700DFFA7A007B091209C37A007B07120A2A4D
:1005B7007F0F120AC3B2B5020A77B4350BC325659C
:1005C700F56550070564A1D20206977F03120A99C1
:1005D70020089C7F03900200E0A3C32565F56550C2
:1005E700020564DFF3900200A3A3E0B4014F7F226A
:1005F700120A992008C17F20121173400302069442
:10060700900200E0F544A3A3C0A275A201900200E6
:100617007F0475A200E0A375A201F0A3DFF4E5440F
:10062700F0D0A21214507A007B021209C37A007B21
:1006370000120A2A7F08120AC3B2B5C191B4024A4E
:100647007F07120A992008427F05121173503E90C6
:100657000200E0F544A3A3C0A275A2019002007FA7
:100667000375A200E0A375A201F0A3DFF4E544F04F
:10067700D0A21214FC7A007B021209C37A007B0015
:10068700120A2A7F08120AC3B2B5020A770204CFF8
:03069700B4364B2B
:10069A00C32565F56550020564B2B57F05120A994E
:1006AA002008E47F0312117350E0900200A3A3E034
:1006BA00B40005120DFFC1CDB40105120E37C1CD2C
:1006CA00120E377A007B021209C37A007B00120AE3
:1006DA002A7F08120AC3B2B5020A77B43737C3258C
:1006EA0065F56550020564B2B57F05120A992008BE
:1006FA00967F03121173900200A3A3E0B4000302D1
:10070A0015DFE114B401030216B4F56F021F1002DB
:10071A000A770204CFB4383FC32565F56550020550
:10072A00647F04120A992008E67F0212117350E2CC
:10073A00D2952095047463E145746F900206F07AAD
:10074A00007B011209C37A007B01120A2A7F09126F
:10075A000AC3B2B5020A77B43939C32565F56550BB
:10076A000205647F1E120A992008A47F1C121173C5
:10077A0050A07A007B021209C37A007B00120A2A6F
:10078A007F08120AC3B2B512171D020A77020A7746
:10079A000204CFB4413BC32565F565500205647F69
:1007AA0018120A992008E67F1612117350E2900275
:1007BA0000A3A3E0F53412171E7A007B021209C3C4
:1007CA007A007B00120A2A7F08120AC3B2B5020A0B
:1007DA0077B44637C32565F56550020564D2137FA1
:0707EA0004120A992008A681
:1007F100D2137F0212117350A012175F7A007B028D
:100801001209C37A007B00120A2A7F08120AC3B2B6
:10081100B5020A77020A77B44C09120A8F1209B09D
:10082100020A77B44904D209012E020831020A777B
:10083100B44B0E7F04120A991214FC1209B0020A79
:1008410077B453557C10900000ECF0A3DCFB7946A3
:1008510077000977007A007B10715A9000007C10B4
:100861007400F0A3DCFC794677000977007A007BFD
:1008710010120BB87C1090000075A2019002007557
:10088100A200E0A375A201F0A3DCF475A2007F1021
:10089100120AC31209B0020A77B44D23D209120A0F
:1008A1008F753B10753C10753D22754106753E23D1
:1008B100753F11754043121CC91209B0020A77B481
:1008C100411B121C647F07783B900200E6F008A3ED
:1008D100DFFA7F07120AC31209B0020A77B452186D
:1008E1007F03782F900200E6F008A3DFFA7F03125E
:1008F1000AC31209B0020A77B4544F7C017D0090FB
:100901000200EDF0A3DDFBDCF978607401F60874F8
:10091100F5F67C017D0079467402F70977007A01CA
:100921007B00120EA07C0090000075A201900200D5
:0C09310075A200E0A375A201F0A3DCF4A5
:10093D0075A2007F00120AC31209B0020A77B457DC
:10094D00030215DFB448387F01120A99900200E0C6
:10095D00C0E012104AD0E0B40002216CB401087F4F
:10096D000674FFF0A3DFFC7A027B00900000B2B5A5
:10097D00E0A3120A8FDBF7DAF51209B0020A77B499
:10098D00501EE573120A8FE574120A8FE575120A6F
:10099D008FE576120A8FE571120A8FE572120A8FB2
:1009AD00020A77B2B574B5120A8F74CF120A8F226C
:1009BD007566050209C6756600120E5075640075E0
:1009CD006500900200B2B5D29500746F2095027447
:1009DD0063F0A3C32565F56550020564E534F4F0B5
:1009ED00A3C32565F5655002056474D1F0A3C32535
:1009FD0065F56550020564E566F0A3C32565F565EB
:100A0D0050020564EAF0A3C32565F565500205643F
:100A1D00EBF0A3C32565F56550020564229002062F
:100A2D007437B56612740A8AF0A4FAC3740A8BF08F
:100A3D00A4FB50010B41440ABB0006BA0103020A94
:100A4D005DE0A3C32565F56550020564DBF3DAF1BE
:090A5D00E564F4F564E565F4C3F9
:100A66002401F56550020564E564F0A3E565F0A38D
:100A760022C299C209B2B5D08ED082D083D0D0D04E
:100A8600E0D2ACD2AF12179432C29BF5993099FDE1
:100A9600C29922900200120AE7200820120AFCC41A
:100AA600F0120AE7200815120AFCF544E04544F066
:100AB600A3B2B5DFE1301304C213419C22D20974FC
:100AC60048120A8F900200E0C4120B11120A8FE03E
:100AD600120B11120A8FA3B2B5DFEC7457120A8FEC
:100AE60022C2087EFF7DFF109809B2B5DDF9DEF55A
:100AF600D20822E59922C39430C0E0940A4007D078
:100B0600E09407540F22D0E0540F22540FC0E02483
:100B1600F6D0E050022407243022D209D209C209B5
:100B2600C20922C209D209D209C20922C209D209BE
:100B3600C209D20922D209D209C20922D209D2098E
:100B4600A209C20922754508C3339209D209C2090E
:100B5600D545F622C083C082B2B5C2AFC209794676
:100B6600E7C333E492E144A0120B20120B4B120BA5
:0E0B760042401D09E7120B4B120B4240130ABE
:100B8400900000E0120B4B120B424006A3DBF4DA98
:100B9400F2C3120B29D209D2AFB2B5D082D08322CC
:100BA400754508C3E4D209D2090000A20933C20979
:100BB400D545F422C083C082B2B5C2AFC20979461A
:100BC400E7C333E492E144A0C0E0120B20120B4BC4
:100BD400120B42402B09E7120B4B120B424021D05F
:100BE400E043E001120B20120B4B120B4240110A9E
:100BF400900000120BA4F0A3DB14DA12120B3BC317
:100C0400120B29D2AFB2B5D082D083D20922120BF3
:100C140032020BF7C201D215C08E753605C21643D7
:100C24008E0212189BE537B40406020C3A020C7AC1
:100C340012189BB404F71218FE120E8F783175281F
:100C4400007923E76228F609E7622818F609E762C3
:100C54002818F609E7622809E7B528D17F05792322
:100C6400E709DFFC120E8F1219B8120E8F7802E218
:100C7400301518020C7FA122020D22C215121AC2CD
:100C840030179A753A04D216020CAAD21512182BF0
:100C940012186D121A2A3017DF7877E675F004A45B
:100CA400783AF6438E02900300121A067F107802F7
:050CB400E2538EFDF08B
:100CB900A3438E02DFF5783AE604F6121A067F108E
:100CC9007802E2538EFDF0A3438E02DFF5783AE60F
:100CD90004F6121A067F107802E2538EFDF0A34340
:100CE9008E02DFF5783AE604F6121A067F107802CA
:100CF900E2538EFDF0A3438E02DFF5538EFD900380
:100D090036E0B4FF17A3E0B40712A3E0B4800DA343
:100D1900E0B46908121794D201D08E22121794D523
:100D29003602A122020C21C08E438E0212189BE5C5
:100D390037B40406020D49020C7A12189BB404F761
:100D49001218FE120E8F7528007923E7622809E729
:100D5900622809E7622809E7622809E7B5282E7F92
:100D6900057923E709DFFC120E8F1219B8120E8FCD
:100D79007802E2020D84A196020D96121AC230176A
:100D8900F7900300121B54121C50121794D08E2294
:100D990012189BE537B4043F7537001218FE120E7E
:100DA900977528007923E7622809E7622809E7622D
:100DB9002809E7622809E7B5281D7F057923E7098E
:100DC900120A8FDFF9120E971219B8120E977802CC
:0F0DD900E2121EC8120DE122C291C291120E4603
:100DE800D291D29122120DE1120E50120DE122C2BF
:100DF80091120E3CD29122D297D2977458121FE0CA
:100E08007465121FE0746D121FE07461121FE074A4
:100E180068121FE0D2C4000030C409120E46120E38
:100E280046020E37D2C4000020C40375320322C222
:100E380097C297227F05120E46B2B5DFF9227E646B
:100E4800120E64B2B5DEF9227E32120E64B2B5DE3D
:100E5800F9227E16120E64B2B5DEF9227DE6120E74
:100E68007A120E7A120E7A0000000000000000DDEF
:100E7800ED22000022B2B57DDC00DDFD227E1402E9
:100E88000E917E05020E917E02120E64DEFB227F19
:100E98001E7EC8DEFEDFFA22C0A275A201C083C092
:100EA8008275A200C083C082B2B57946E7F583098E
:100EB800E7F58275C50175C70343C780E58720E557
:100EC800FB0A0B75A201900000DB05DA03020EF3A2
:100ED80075A2008583C38582C475C65A75C6A500E8
:100EE800E5C2A375A201F0A3020ED175A20075C7D1
:100EF8000075C50075C60075C3FF75C40075A200EE
:100F0800D082D08375A201D082D083D0A2B2B5227C
:080F180012101975A201C0833B
:100F2000C08275A200C083C082B2B57946E7F5835E
:100F300009E7F58275C50275C70343C780E58720B9
:100F4000E5FB0A0B75A201900000DB05DA03020F36
:100F50006C75A201E0F5C2A375A2008583C38582EA
:100F6000C475C65A75C6A5A300020F4A75A20075BE
:100F7000C70075C50075C60075C3FF75C400D08273
:100F8000D08375A201D082D08375A200B2B522753C
:100F9000A201C083C08275A200C083C082B2B579AD
:100FA00046E7F58309E7F58275C50275C70343C7B0
:100FB00080E58720E5FB0A0B75A201900200DB05A6
:100FC000DA03020FF675A201E0F5C2A375A200E5EF
:100FD00082B40011E58320E00C12105A75C5027529
:100FE000C70343C7808583C38582C475C65A75C647
:100FF000A5A300020FBE75A20075C70075C50075D8
:10100000C60075C3FF75C400D082D08375A201D01D
:1010100082D08375A200B2B522B2B57946E7F5C396
:1010200009E7F5C475C50375C70343C780E5872085
:10103000E5FB75C65A75C6A575C70075C50075C6AA
:101040000075C3FF75C400B2B52254FE7946F70996
:1010500077007A027B00120EA02254FE7946F7092F
:0E10600077001210192254FE7946F709770026
:10106E007A027B00120F1B22C083C082B2B5C2AFC0
:10107E0075A20190020075A2007960E754FEF58317
:10108E007582007946A78309A7827A027B00120E29
:10109E00A07960E75401F58309E7F582BD0005BC30
:1010AE000002211C75A201E0A375A200F0A3E58247
:1010BE00B40048E583B402437860E654FE12105A39
:1010CE0078607946E654FEF70977007A027B0012C3
:1010DE000F1B7860E654FE0404F6087600C3ED9408
:1010EE0001FD400201FABC000221361CBD0006BC07
:1010FE000003021136021084021136C3ED9401FD75
:10110E0040030210AABC0002211C1C0210AA786027
:10111E00E654FE12105A78607946E654FEF70977C7
:10112E00007A027B00120F1BD2AFD082D083B2B5F1
:10113E00220535E535B40305753500D20BD5330BD5
:10114E00D53205D2A0120E3775336432E6E7E66764
:10115E0070080809B2B5DFF4D322C322E6F70809F6
:10116E00B2B5DFF822B2B5900200E0C32565F56591
:0A117E0050020564A3DFF3301304F0
:10118800C2132178E564F4F564E565F4C32401F538
:101198006550020564E0B56407A3E0B56502D32293
:1011A800C3221211E31212B47871E6900206F00815
:1011B800E6A3F022B2B5C3E5722401F57250020528
:1011C8007122754301E571B40007E572B40002218C
:1011D800E2C39543F5725002157122E47871F6085E
:1011E800F622E0F7A309DFFA229000097946A783DF
:1011F80009A7827A007B0C120BB890000079677FF0
:10120800041211EA900004E0B56712A3E0B5680D76
:10121800A3E0B56908A3E0B56A0302126D9000085F
:10122800E0B56712A3E0B5680DA3E0B56908A3E0CF
:10123800B56A0302133A90000479677F041211EA31
:10124800900008E0B56712A3E0B5680DA3E0B569A2
:1012580008A3E0B56A0302133A75672A7568007532
:10126800692A756A00220000021FF90090020085B1
:10127800836B85826C7946A76B09A76C7A007B041F
:10128800120EA07B04900000E0A3B4FF03DBF92258
:09129800B40003DBF322C3E56C92
:1012A1002404F56C5002056BE56BB42ACFE56CB4F0
:1012B10000CA22D20FD20EC2AF902A008583738555
:1012C1008274858375858276858367858268794690
:1012D100A76709A7687A007B0A120EA07B0A900013
:1012E10000E0A3B4FF04DBF941F0B40011DBF2D25A
:1012F1000E300F1A856775856876C20F610F12115E
:10130100BCD20F300E08856773856874C20EC3E5C1
:1013110068240AF56850020567E567B4D4B0E5684A
:10132100B400AB300F10E575B42A0BE576B40006B6
:101331007575D4757600D2AF22220000021FF90024
:1013410090000078677F04E6F0A308DFFA78677FF2
:1013510004E6F0A308DFFA78677F04E6F0A308DF6C
:10136100FA9000097946A78309A7827A007B0C12BB
:101371000B5A229000017946A78309A7827A007B44
:101381000C120EA07CD41CEC12105ADCF990020055
:101391007401F0F534C0A275A201900200A375A2F8
:1013A100009000007F0C75A200E0A375A201F0A3DC
:1013B100DFF4D0A29000007860A68308A6827C00AA
:1013C1007D0D1210761211E3796D786B7402F6F7C8
:0213D100080909
:1013D3007400F6F77873742AF6087400F608742A12
:1013E300F6087400F622B2B5C20CE56BB40206E54A
:1013F3006CB4000122756702756800756902756A2D
:10140300007946E567F709E568F77A007B04120E71
:10141300A0782F9000007A03E066700B08A3B2B5A2
:10142300DAF6E0F523814DE56AC32404F56A500238
:101433000569E56BB56908E56CB56A03C20C2285DD
:101443006967856A68B2B5021404D20C22B2B57812
:101453002F9002007F04E0F6A308DFFA1213E920BD
:101463000C47E56BB42A08E56CB40003C20D227582
:10147300A20090000075A2019002007F0475A201F2
:10148300E0A375A200F0A3DFF4B2B57860A66B0801
:10149300A66C7C007D04121076B2B5E56CC32404FF
:1014A300F56C5002056BD20D2275A20090000075F9
:1014B300A2019002007F0475A201E0A375A200F0CF
:1014C300A3DFF4B2B57860A66708A6687C007D0444
:1014D300121076D20D22B2B57960A78309A7829044
:0E14E3000200782F7400F0A37F03E608F0A348
:1014F100DFFAB2B57C007D04117622B2B59002000C
:10150100792F7F03E0F7A309DFFA1213E9200C0317
:10151100C20D22E56CC39404F56C5002156B79463B
:10152100E56BF709A76C7A007B04120EA0C0A275C7
:10153100A20190000075A2009002007F0475A20133
:10154100E0A375A200F0A3DFF4D0A27860A6690839
:10155100A66A7C007D041210769002007F0474FF5D
:10156100F0A3DFFC7860A66B08A66C7C007D0412FA
:101571001076D20D22B2B5121C64900200E52EF055
:10158100A3E4F0A37F03C2AF7448121FCE7400120C
:101591000A8FE52E120A8F782FE6120A8FF0A30820
:1015A100DFF77457121FCE783B7F05E6F0A308DF03
:1015B100FAE575B4D40BE576B4000675752A75762F
:1015C100007946A77509A7767A007B0A120F8F1258
:1015D10011BCE576C3240AF5765002057522C2AF27
:1015E100C0A275A201C083C08275A200C083C0825F
:1015F100B2B57C147D007E0075A201900206E573F0
:101601006575703CE5746576703685736985746AB5
:0B1611001212B4E57365757027E574D4
:10161C0065767021E573642A7012E5746400700CB1
:10162C00856973856A74856975856A761211E375A7
:10163C0066070216A87946A77309A7747A007B0A75
:10164C00120EA075A2007B0A75A200900000E0A308
:10165C0075A201F0A375A200DBF49000007B0AE4F4
:10166C00F0A3DBFC7946A77309A7747A007B0A12F6
:10167C000F1B0EC3E574240AF57450020573E57351
:10168C00B4D411E574B4000C75732A7574007575B7
:10169C002A757600DC030216A80215FFE44E6008DA
:1016AC008E431211CD75660075A200D082D0837561
:1016BC00A201D082D083D0A2EDFAEEFBF543120941
:1016CC00C6EDFAE543FB756637120A2A740A8543A0
:1016DC00F0A42408FF120AC3B2B5020A77E573B46A
:1016EC002A08E573B4000302171C75F014740AA4DD
:1016FC00F5F0C3E574940AF57450021573E573B4F0
:10170C002A08E573B4000302171CD5F0E502171C78
:10171C002222900200A3A3E0900200F09000007837
:10172C0060A68308A6827C007D0112107622C2AFCF
:10173C009000007946A78309A7827A007B01120EDC
:0D174C00A0900000E0F5341212741211E3B9
:101759001212B4D2AF227F00C0A275A2019002007A
:1017690075A200900200A3A375A200E0A375A201CF
:10177900F0A3DFF49000107860A68308A6827C01AC
:101789007D00121076D0A2221217E6781F7400F29B
:10179900781F7440F2120E7D120E7DE254BFF2786A
:1017A9001F7407F2781B74ADF2781C74FFF2781E6F
:1017B9007401F27829741AF2782B7402F2782D7474
:1017C90003F27811E254FCF2120E8F120E8F781187
:1017D900E24403F278267402F2538EFD22438E020C
:1017E900C2B4C2B3120E50D2B3120E85C2B3120ED6
:1017F9008A78007400F27FFF7801E2543F6002DFCB
:10180900F922C08E438E027809E24410F2D08EB2DA
:10181900B522C08E438E027809E254EFF2D08EB21F
:10182900B522C08E538EFD78789003FA792374C25D
:101839006667F0E6E7A3080974DE6667F0E6E7A3E2
:10184900080974B56667F0E6E7A3080974CF666707
:03185900F0E6E7CF
:10185C00A3080974D66667F0A30874C766F0D08E27
:10186C0022C08E538EFD9003FA79807C06E054F0F2
:10187C00FA64F0FBEA030303034BF709E0540FFA95
:10188C00640F232323234AF709A3DCE1D08E22C063
:10189C008E438E02B2B57809E254F7F278227403C3
:1018AC00F2780F7407F27811E24403F27806747F31
:1018BC00F27807747FF278017400F21218F578064A
:1018CC00748CF27537007FFF78027426F2780174FD
:1018DC001EF2DF030218F07803E2540860F4780279
:1018EC00E2F537E2D08EB2B522B2B57809E2440106
:1018FC00F222C08E438E02B2B57DFF7809E254F716
:10190C00F2780A7400F2781A7428F2752900792397
:10191C007700097700097700097700E5295407F566
:10192C0038232323234538780FF2E5290303035486
:10193C0007F539E53860020539053905397802743F
:01194C009307
:10194D00F21539E52954F823253824207802F215AB
:10195D0039E539600D79237802E7F2091539E53952
:10196D0070F57801741EF2DD030219B37803E254A9
:10197D000860F4120E8F79237802E247F709E247E7
:10198D00F709E247F709E247F709E2F7780AE25467
:10199D00016013780AE254FEF2780BE22529C39513
:1019AD0038F529021927D08EB2B522C08E438E028A
:1019BD00B2B57FFF79237822740FF27809E254F7DC
:1019CD00F278027493F278027470F27802E709F2F9
:1019DD007802E709F27802E709F27802E709F2786E
:1019ED0002E7F27801741EF2DF03021A017803E2B6
:1019FD00540860F4D08EB2B522C08E438E02B2B5BB
:101A0D007822740FF278027430F2783AE67802F2A6
:101A1D007801741EF2120E8FD08EB2B522C08E4395
:101A2D008E02C217B2B57807747FF279807802E71B
:041A3D00F209780230
:101A4100E7F2097802E7F2097802E7F2097802E79A
:101A5100F2097802E7F2097802E7F2097802E7F27F
:101A6100097802E7F2097802E7F2097802E7F20958
:101A71007802E7F278017419F2120E8F120E8F7844
:101A8100027460F27877E675F004A47802F27802C5
:101A91007923E7F209E7F209E7F209E7F27801743D
:101AA1000CF2120E8F120E8F78017414F2120E8F37
:101AB100120E8F7809E254086002D217D08EB2B5A7
:101AC10022C08E438E02C217B2B57807747FF278B6
:101AD10002743CF2780274D2F27802742DF2780228
:101AE100741EF27802744BF2780274A5F2780274D3
:101AF1003CF27802740FF27802742DF27802749637
:101B0100F27802743CF278027487F278017419F267
:101B1100120E8F120E8F78027460F278027404F242
:0B1B210078027923E7F209E7F209E7F8
:101B2C00F209E7F27801740CF2120E8F120E8F7814
:101B3C00017414F2120E8F120E8F7809E2540860A1
:101B4C0002D217D08EB2B522C08E438E02B2B578B7
:101B5C0022740FF278017400F2780274A0F2793AD0
:101B6C00E77802F27801741EF2120E8F780174007D
:101B7C00F27802E27802E27802E278017400F279FB
:101B8C003AE77802538EFDE0A3438E02F2780253BB
:101B9C008EFDE0A3438E02F27802538EFDE0A34348
:101BAC008E02F27802538EFDE0A3438E02F278028D
:101BBC00538EFDE0A3438E02F27802538EFDE0A318
:101BCC00438E02F27802538EFDE0A3438E02F2782C
:101BDC0002538EFDE0A3438E02F27802538EFDE099
:101BEC00A3438E02F27802538EFDE0A3438E02F2E1
:101BFC007802538EFDE0A3438E02F27802538EFDE1
:101C0C00E0A3438E02F27802538EFDE0A3438E02D2
:101C1C00F27802538EFDE0A3438E02F27802538ECB
:0E1C2C00FDE0A3438E02F27802538EFDE0A38A
:101C3A00438E02F27801741EF2120E857801740046
:101C4A00F2D08EB2B522C08E438E02B2B57F307802
:101C5A0000E208DFFCD08EB2B52275F081121D6851
:101C6A00121D7B7840F6C29475F083121D68121D0E
:101C7A007B783FF6C29475F085121D68121D7BC2EF
:101C8A00E7783EF6C29475F087121D68121D7B78BC
:101C9A003DF6C29475F089121D68121D7B783CF6D8
:101CAA00C29475F08B121D68121D7B7841F6C2949E
:101CBA0075F08D121D68121D7B783BF6C294227551
:101CCA00F08E121D6875F000121D68C29475F080BE
:101CDA00121D687840E6C2E7F6F5F0121D68C29454
:101CEA0075F082121D68783FE6F5F0121D68C294FD
:101CFA0075F084121D68783EE6C2E7F6F5F0121D0B
:101D0A0068C29475F086121D68783DE6F5F0121DDA
:101D1A0068C29475F088121D68783CE6F5F0121DC9
:101D2A0068C29475F08A121D687841E6F5F0121DB2
:101D3A0068C29475F08C121D68783BE6F5F0121DA6
:101D4A0068C29475F090121D6875F0A9121D687525
:101D5A00F08E121D6875F080121D68C29422D2940A
:101D6A007C08E5F013F5F09293D29200C292DCF26D
:081D7A0022D2947C08A293130D
:101D8200D29200C292DCF622538EFD90032FE0B471
:101D9200FF03D21422B40003D21422C0E0121C6446
:101DA200D0E0B40203021DCD783B900320121E3016
:101DB200201403021E07783B900323121E1D3014C9
:101DC20003021E07121E4520140122900326793EAB
:101DD200121E9D301402A1EA783E900328121E0AB8
:101DE200201405D214021E0990032A793E121E9D68
:101DF200301402C107783E90032C121E0A201405EB
:101E0200D214021E09C21422C2147F02E0F9E6694A
:101E1200700508A3DFF622121EB022C2147F03E06F
:101E2200F9E669700508A3DFF622121EB022C21479
:101E32007F03E0F9E669700708A3DFF6D2142212E5
:101E42001EB022D21490032EE0F5F07841E6B401E0
:101E520008E5F030E002C21422B40208E5F030E1F5
:101E620002C21422B40308E5F030E202C21422B422
:101E72000408E5F030E302C21422B40508E5F030AC
:101E8200E402C21422B40608E5F030E502C21422CC
:101E9200B40705E5F030E602C21422C2147F02E064
:0E1EA200F8E867700509A3DFF622121EBC22C5
:101EB000749AC396C329D44002D21422749AC39848
:101EC000C327D44002D214227FFF78027450F278E4
:101ED000027400F27801741EF2DF03021EE578033B
:101EE000E2540860F4227D03782FE6F008A3DDFABF
:101EF000229000017946A78309A7827A007B071206
:101F00000EA07B0F9000007877E0F608A3DBFA22A2
:101F1000E56F12104A02097443A01E53A01F120E4F
:101F20007AE5A0541EB41E03021FCD120E6443A016
:101F30001E53A01F120E7AE5A0541EB41E03021FEA
:101F4000CD13540FD375F003A2E3500433D5F0F84A
:101F500085F04743A0E053A0E1120E7AE5A054E0DB
:101F6000B4E003021FCDD375F003A2E5500413D5EE
:101F7000F0F885F0468547F07403A425462430B474
:101F80003A04742AE192B43B047430E192B43C0206
:101F90007423F5F0121FCE120DE1753202C2A0E5D6
:101FA000F0121FE0120E46E5F0121FE043A0E053CE
:101FB000A0E1B2B5E5A054E0B4E0F1120E6443A094
:101FC000E053A0E1B2B5E5A054E0B4E0DF22120A8C
:101FD0008F227F1C120E7A120E7A120E7ADFF522F1
:091FE000C2AFC2C3121FD278087F
:101FE9001392C3121FD2D8F8D2C3121FD2D2AF2272
:011FF90032B5
:00000001FF
